{"abi":[{"type":"constructor","inputs":[{"name":"_lifePool","type":"address","internalType":"address"},{"name":"_life","type":"address","internalType":"contract ISuperToken"},{"name":"_baseFlowRate","type":"int96","internalType":"int96"},{"name":"nativePrice","type":"uint256","internalType":"uint256"},{"name":"_startTime","type":"uint256","internalType":"uint256"},{"name":"_duration","type":"uint256","internalType":"uint256"}],"stateMutability":"nonpayable"},{"type":"function","name":"BASE_FLOW_RATE","inputs":[],"outputs":[{"name":"","type":"int96","internalType":"int96"}],"stateMutability":"view"},{"type":"function","name":"DEFAULT_ADMIN_ROLE","inputs":[],"outputs":[{"name":"","type":"bytes32","internalType":"bytes32"}],"stateMutability":"view"},{"type":"function","name":"GAME_ADMIN_ROLE","inputs":[],"outputs":[{"name":"","type":"bytes32","internalType":"bytes32"}],"stateMutability":"view"},{"type":"function","name":"duration","inputs":[],"outputs":[{"name":"","type":"uint256","internalType":"uint256"}],"stateMutability":"view"},{"type":"function","name":"eat","inputs":[{"name":"playerEating","type":"address","internalType":"address"},{"name":"playerEaten","type":"address","internalType":"address"},{"name":"percentageEaten","type":"uint256","internalType":"uint256"}],"outputs":[],"stateMutability":"nonpayable"},{"type":"function","name":"enter","inputs":[{"name":"player","type":"address","internalType":"address"},{"name":"currency","type":"address","internalType":"address"},{"name":"userData","type":"bytes","internalType":"bytes"}],"outputs":[],"stateMutability":"payable"},{"type":"function","name":"exit","inputs":[{"name":"player","type":"address","internalType":"address"}],"outputs":[],"stateMutability":"nonpayable"},{"type":"function","name":"gameCurrencies","inputs":[{"name":"","type":"address","internalType":"address"}],"outputs":[{"name":"enabled","type":"bool","internalType":"bool"},{"name":"price","type":"uint256","internalType":"uint256"}],"stateMutability":"view"},{"type":"function","name":"getRoleAdmin","inputs":[{"name":"role","type":"bytes32","internalType":"bytes32"}],"outputs":[{"name":"","type":"bytes32","internalType":"bytes32"}],"stateMutability":"view"},{"type":"function","name":"grantRole","inputs":[{"name":"role","type":"bytes32","internalType":"bytes32"},{"name":"account","type":"address","internalType":"address"}],"outputs":[],"stateMutability":"nonpayable"},{"type":"function","name":"hasRole","inputs":[{"name":"role","type":"bytes32","internalType":"bytes32"},{"name":"account","type":"address","internalType":"address"}],"outputs":[{"name":"","type":"bool","internalType":"bool"}],"stateMutability":"view"},{"type":"function","name":"isInGame","inputs":[{"name":"player","type":"address","internalType":"address"}],"outputs":[{"name":"","type":"bool","internalType":"bool"}],"stateMutability":"view"},{"type":"function","name":"life","inputs":[],"outputs":[{"name":"","type":"address","internalType":"contract ISuperToken"}],"stateMutability":"view"},{"type":"function","name":"renounceRole","inputs":[{"name":"role","type":"bytes32","internalType":"bytes32"},{"name":"account","type":"address","internalType":"address"}],"outputs":[],"stateMutability":"nonpayable"},{"type":"function","name":"revokeRole","inputs":[{"name":"role","type":"bytes32","internalType":"bytes32"},{"name":"account","type":"address","internalType":"address"}],"outputs":[],"stateMutability":"nonpayable"},{"type":"function","name":"startTime","inputs":[],"outputs":[{"name":"","type":"uint256","internalType":"uint256"}],"stateMutability":"view"},{"type":"function","name":"supportsInterface","inputs":[{"name":"interfaceId","type":"bytes4","internalType":"bytes4"}],"outputs":[{"name":"","type":"bool","internalType":"bool"}],"stateMutability":"view"},{"type":"function","name":"updateGamePrice","inputs":[{"name":"currency","type":"address","internalType":"address"},{"name":"price","type":"uint256","internalType":"uint256"}],"outputs":[],"stateMutability":"nonpayable"},{"type":"event","name":"Ate","inputs":[{"name":"playerEating","type":"address","indexed":true,"internalType":"address"},{"name":"playerEaten","type":"address","indexed":true,"internalType":"address"},{"name":"percentageEaten","type":"uint256","indexed":false,"internalType":"uint256"}],"anonymous":false},{"type":"event","name":"Entered","inputs":[{"name":"player","type":"address","indexed":true,"internalType":"address"},{"name":"currency","type":"address","indexed":true,"internalType":"address"},{"name":"userData","type":"bytes","indexed":false,"internalType":"bytes"}],"anonymous":false},{"type":"event","name":"Exited","inputs":[{"name":"player","type":"address","indexed":true,"internalType":"address"}],"anonymous":false},{"type":"event","name":"RoleAdminChanged","inputs":[{"name":"role","type":"bytes32","indexed":true,"internalType":"bytes32"},{"name":"previousAdminRole","type":"bytes32","indexed":true,"internalType":"bytes32"},{"name":"newAdminRole","type":"bytes32","indexed":true,"internalType":"bytes32"}],"anonymous":false},{"type":"event","name":"RoleGranted","inputs":[{"name":"role","type":"bytes32","indexed":true,"internalType":"bytes32"},{"name":"account","type":"address","indexed":true,"internalType":"address"},{"name":"sender","type":"address","indexed":true,"internalType":"address"}],"anonymous":false},{"type":"event","name":"RoleRevoked","inputs":[{"name":"role","type":"bytes32","indexed":true,"internalType":"bytes32"},{"name":"account","type":"address","indexed":true,"internalType":"address"},{"name":"sender","type":"address","indexed":true,"internalType":"address"}],"anonymous":false}],"bytecode":{"object":"0x6080604052600180546001600160601b031916670de0b6b3a76400001790553480156200002a575f80fd5b5060405162001e2638038062001e268339810160408190526200004d91620001ce565b600280546001600160a01b038881166001600160a01b0319909216919091179091556001600160601b0385169086166c01000000000000000000000000026001600160601b031916176001908155600483905560058290555f80805260036020527f3617319a054d772f909f7c479a2cebe5066e836a939412e32403c99029b92eff805460ff19169092179091557f3617319a054d772f909f7c479a2cebe5066e836a939412e32403c99029b92f008490556200010b903362000117565b5050505050506200023f565b5f828152602081815260408083206001600160a01b038516845290915290205460ff16620001b2575f828152602081815260408083206001600160a01b03851684529091529020805460ff19166001179055620001713390565b6001600160a01b0316816001600160a01b0316837f2f8788117e7eff1d82e926ec794901d17c78024a50270940304540a733656f0d60405160405180910390a45b5050565b6001600160a01b0381168114620001cb575f80fd5b50565b5f805f805f8060c08789031215620001e4575f80fd5b8651620001f181620001b6565b60208801519096506200020481620001b6565b80955050604087015180600b0b81146200021c575f80fd5b80945050606087015192506080870151915060a087015190509295509295509295565b611bd9806200024d5f395ff3fe608060405260043610610105575f3560e01c806391d1485411610092578063b42652e911610062578063b42652e9146102b1578063be22d27d146102d0578063c531086814610303578063cb7064d314610341578063d547741f14610390575f80fd5b806391d1485414610234578063967fab9014610253578063a20dec041461027f578063a217fddf1461029e575f80fd5b806336568abe116100d857806336568abe146101af5780633f4ebe25146101ce57806351d9e3b6146101ed57806376e033c71461020057806378e979251461021f575f80fd5b806301ffc9a7146101095780630fb5a6b41461013d578063248a9ca3146101605780632f2ff15d1461018e575b5f80fd5b348015610114575f80fd5b506101286101233660046115de565b6103af565b60405190151581526020015b60405180910390f35b348015610148575f80fd5b5061015260055481565b604051908152602001610134565b34801561016b575f80fd5b5061015261017a366004611605565b5f9081526020819052604090206001015490565b348015610199575f80fd5b506101ad6101a8366004611630565b6103e5565b005b3480156101ba575f80fd5b506101ad6101c9366004611630565b61040e565b3480156101d9575f80fd5b506101ad6101e836600461165e565b610491565b6101ad6101fb366004611708565b610751565b34801561020b575f80fd5b5061012861021a3660046117a6565b61087b565b34801561022a575f80fd5b5061015260045481565b34801561023f575f80fd5b5061012861024e366004611630565b610885565b34801561025e575f80fd5b5060015461026c90600b0b81565b604051600b9190910b8152602001610134565b34801561028a575f80fd5b506101ad6102993660046117c1565b6108ad565b3480156102a9575f80fd5b506101525f81565b3480156102bc575f80fd5b506101ad6102cb3660046117a6565b610926565b3480156102db575f80fd5b506101527f9b7946abd96dccbe6cfc6cc2c13300ab429d93e16fa72dc459eeccda73817f0881565b34801561030e575f80fd5b5060015461032990600160601b90046001600160a01b031681565b6040516001600160a01b039091168152602001610134565b34801561034c575f80fd5b5061037961035b3660046117a6565b60036020525f90815260409020805460019091015460ff9091169082565b604080519215158352602083019190915201610134565b34801561039b575f80fd5b506101ad6103aa366004611630565b610a51565b5f6001600160e01b03198216637965db0b60e01b14806103df57506301ffc9a760e01b6001600160e01b03198316145b92915050565b5f828152602081905260409020600101546103ff81610a75565b6104098383610a82565b505050565b6001600160a01b03811633146104835760405162461bcd60e51b815260206004820152602f60248201527f416363657373436f6e74726f6c3a2063616e206f6e6c792072656e6f756e636560448201526e103937b632b9903337b91039b2b63360891b60648201526084015b60405180910390fd5b61048d8282610b05565b5050565b7f9b7946abd96dccbe6cfc6cc2c13300ab429d93e16fa72dc459eeccda73817f086104bb81610a75565b6004544210156104dd5760405162461bcd60e51b815260040161047a906117eb565b6005546004546104ed9190611836565b421061050b5760405162461bcd60e51b815260040161047a90611849565b61051484610b69565b8015610524575061052483610b69565b6105705760405162461bcd60e51b815260206004820152601960248201527f47616d653a20706c6179657273206e6f7420696e2067616d6500000000000000604482015260640161047a565b6127108211156105e85760405162461bcd60e51b815260206004820152603d60248201527f47616d653a2070657263656e74616765456174656e2073686f756c642062652060448201527f6c657373207468616e206f7220657175616c20746f204d41585f425053000000606482015260840161047a565b6002546001545f9161060e91600160601b90046001600160a01b03908116911686610ba3565b50509150505f6127108483600b0b6106269190611871565b6106309190611888565b90505f61063d82846118a7565b90505f81600b0b136106735760025460015461066d916001600160a01b03600160601b9092048216911688610c40565b5061069a565b600254600154610698916001600160a01b03600160601b909204821691168884610c66565b505b6002546001546106be916001600160a01b03600160601b9092048216911689610ba3565b50506002549094506106fa91506001600160a01b0316886106df85876118de565b600154600160601b90046001600160a01b0316929190610c66565b50856001600160a01b0316876001600160a01b03167fd4ef10610f644bceeb883e86ca9011d54481c1bb53900991a1ea0b1668b3d1848760405161074091815260200190565b60405180910390a350505050505050565b6004544210156107735760405162461bcd60e51b815260040161047a906117eb565b6005546004546107839190611836565b42106107a15760405162461bcd60e51b815260040161047a90611849565b6107aa83610b69565b156107f75760405162461bcd60e51b815260206004820152601c60248201527f47616d653a20706c6179657220616c726561647920696e2067616d6500000000604482015260640161047a565b6108018383610c8f565b60025460015461082a916001600160a01b03600160601b83048116929116908690600b0b610dfb565b50816001600160a01b0316836001600160a01b03167f4289906870e5f7a9ef4f05db6139bc78296e8fd5ea06fa3bdbb81ba9d0ebd53b8360405161086e9190611962565b60405180910390a3505050565b5f6103df82610b69565b5f918252602082815260408084206001600160a01b0393909316845291905290205460ff1690565b5f6108b781610a75565b6004544210156108d95760405162461bcd60e51b815260040161047a906117eb565b6005546004546108e99190611836565b42106109075760405162461bcd60e51b815260040161047a90611849565b506001600160a01b039091165f90815260036020526040902060010155565b7f9b7946abd96dccbe6cfc6cc2c13300ab429d93e16fa72dc459eeccda73817f0861095081610a75565b6004544210156109725760405162461bcd60e51b815260040161047a906117eb565b6005546004546109829190611836565b42106109a05760405162461bcd60e51b815260040161047a90611849565b6109a982610b69565b6109f55760405162461bcd60e51b815260206004820152601860248201527f47616d653a20706c61796572206e6f7420696e2067616d650000000000000000604482015260640161047a565b600254600154610a19916001600160a01b03600160601b9092048216911684610c40565b506040516001600160a01b038316907faa5cfc974bd759f818e3e18a4afc9d79daaa0722158497792100a1fddd13e193905f90a25050565b5f82815260208190526040902060010154610a6b81610a75565b6104098383610b05565b610a7f8133610e1b565b50565b610a8c8282610885565b61048d575f828152602081815260408083206001600160a01b03851684529091529020805460ff19166001179055610ac13390565b6001600160a01b0316816001600160a01b0316837f2f8788117e7eff1d82e926ec794901d17c78024a50270940304540a733656f0d60405160405180910390a45050565b610b0f8282610885565b1561048d575f828152602081815260408083206001600160a01b0385168085529252808320805460ff1916905551339285917ff6391f5c32d9c69d2a47ea670b442974b53935d1edc7fd64eb21e047a839171b9190a45050565b6002546001545f918291610b91916001600160a01b03600160601b9092048216911685610ba3565b50505f600b9190910b13949350505050565b5f805f805f610bb188610e74565b604051631cd43d1160e31b81526001600160a01b038b811660048301528a811660248301528981166044830152919350908316915063e6a1e88890606401608060405180830381865afa158015610c0a573d5f803e3d5ffd5b505050506040513d601f19601f82011682018060405250810190610c2e9190611974565b929b919a509850909650945050505050565b604080515f80825260208201909252610c5e90859085908590610ff1565b949350505050565b604080515f80825260208201909252610c86908690869086908690611115565b95945050505050565b600454421015610cb15760405162461bcd60e51b815260040161047a906117eb565b600554600454610cc19190611836565b4210610cdf5760405162461bcd60e51b815260040161047a90611849565b6001600160a01b0381165f9081526003602052604090205460ff16610d465760405162461bcd60e51b815260206004820152601a60248201527f47616d653a2063757272656e6379206e6f7420656e61626c6564000000000000604482015260640161047a565b6001600160a01b038116610db3576001600160a01b0381165f90815260036020526040902060010154341461048d5760405162461bcd60e51b815260206004820152601360248201527247616d653a20696e76616c696420707269636560681b604482015260640161047a565b60405162461bcd60e51b815260206004820152601960248201527f47616d653a204552433230206e6f7420737570706f7274656400000000000000604482015260640161047a565b604080515f80825260208201909252610c8690869086908690869061123c565b610e258282610885565b61048d57610e3281611288565b610e3d83602061129a565b604051602001610e4e9291906119b4565b60408051601f198184030181529082905262461bcd60e51b825261047a91600401611962565b7f65599bf746e17a00ea62e3610586992d88101b78eec3cf380706621fb97ea837547fb969d79d88acd02d04ed7ee7d43b949e7daf093d363abcfbbc43dfdfd1ce969a546001600160a01b038116610fc0576001600160a01b038216610f3757826001600160a01b03166320bc44256040518163ffffffff1660e01b8152600401602060405180830381865afa158015610f10573d5f803e3d5ffd5b505050506040513d601f19601f82011682018060405250810190610f349190611a28565b91505b604051635b69006f60e11b81527fa9214cc96615e0085d3bb077758db69497dc2dce3b2b1e97bc93c3d18d83efd360048201526001600160a01b0383169063b6d200de90602401602060405180830381865afa158015610f99573d5f803e3d5ffd5b505050506040513d601f19601f82011682018060405250810190610fbd9190611a28565b90505b6001600160a01b038216610fd657610fd6611a43565b6001600160a01b038116610fec57610fec611a43565b915091565b5f805f610ffd87611437565b91509150816001600160a01b03166339255d5b82836001600160a01b0316634c8b181f8b8b8b5f67ffffffffffffffff81111561103c5761103c61169c565b6040519080825280601f01601f191660200182016040528015611066576020820181803683370190505b5060405160240161107a9493929190611a57565b60408051808303601f1901815291815260208201805160e094851b6001600160e01b03909116179052519185901b6001600160e01b03191682526110c5939250908990600401611a94565b5f604051808303815f875af11580156110e0573d5f803e3d5ffd5b505050506040513d5f823e601f3d908101601f191682016040526111079190810190611ac9565b506001979650505050505050565b5f805f61112188611437565b91509150816001600160a01b03166339255d5b82836001600160a01b031663354b95908c8c8c8c5f67ffffffffffffffff8111156111615761116161169c565b6040519080825280601f01601f19166020018201604052801561118b576020820181803683370190505b506040516024016111a0959493929190611b32565b60408051808303601f1901815291815260208201805160e094851b6001600160e01b03909116179052519185901b6001600160e01b03191682526111eb939250908990600401611a94565b5f604051808303815f875af1158015611206573d5f803e3d5ffd5b505050506040513d5f823e601f3d908101601f1916820160405261122d9190810190611ac9565b50600198975050505050505050565b5f805f61124888611437565b91509150816001600160a01b03166339255d5b82836001600160a01b03166394229ecb8c8c8c8c5f67ffffffffffffffff8111156111615761116161169c565b60606103df6001600160a01b03831660145b60605f6112a8836002611871565b6112b3906002611836565b67ffffffffffffffff8111156112cb576112cb61169c565b6040519080825280601f01601f1916602001820160405280156112f5576020820181803683370190505b509050600360fc1b815f8151811061130f5761130f611b7a565b60200101906001600160f81b03191690815f1a905350600f60fb1b8160018151811061133d5761133d611b7a565b60200101906001600160f81b03191690815f1a9053505f61135f846002611871565b61136a906001611836565b90505b60018111156113e1576f181899199a1a9b1b9c1cb0b131b232b360811b85600f166010811061139e5761139e611b7a565b1a60f81b8282815181106113b4576113b4611b7a565b60200101906001600160f81b03191690815f1a90535060049490941c936113da81611b8e565b905061136d565b5083156114305760405162461bcd60e51b815260206004820181905260248201527f537472696e67733a20686578206c656e67746820696e73756666696369656e74604482015260640161047a565b9392505050565b7f65599bf746e17a00ea62e3610586992d88101b78eec3cf380706621fb97ea837547fb969d79d88acd02d04ed7ee7d43b949e7daf093d363abcfbbc43dfdfd1ce969a546001600160a01b038116610fc0576001600160a01b0382166114fa57826001600160a01b03166320bc44256040518163ffffffff1660e01b8152600401602060405180830381865afa1580156114d3573d5f803e3d5ffd5b505050506040513d601f19601f820116820180604052508101906114f79190611a28565b91505b604051635b69006f60e11b81527fa9214cc96615e0085d3bb077758db69497dc2dce3b2b1e97bc93c3d18d83efd360048201526001600160a01b0383169063b6d200de90602401602060405180830381865afa15801561155c573d5f803e3d5ffd5b505050506040513d601f19601f820116820180604052508101906115809190611a28565b9050817f65599bf746e17a00ea62e3610586992d88101b78eec3cf380706621fb97ea83755807fb969d79d88acd02d04ed7ee7d43b949e7daf093d363abcfbbc43dfdfd1ce969a556001600160a01b038216610fd657610fd6611a43565b5f602082840312156115ee575f80fd5b81356001600160e01b031981168114611430575f80fd5b5f60208284031215611615575f80fd5b5035919050565b6001600160a01b0381168114610a7f575f80fd5b5f8060408385031215611641575f80fd5b8235915060208301356116538161161c565b809150509250929050565b5f805f60608486031215611670575f80fd5b833561167b8161161c565b9250602084013561168b8161161c565b929592945050506040919091013590565b634e487b7160e01b5f52604160045260245ffd5b604051601f8201601f1916810167ffffffffffffffff811182821017156116d9576116d961169c565b604052919050565b5f67ffffffffffffffff8211156116fa576116fa61169c565b50601f01601f191660200190565b5f805f6060848603121561171a575f80fd5b83356117258161161c565b925060208401356117358161161c565b9150604084013567ffffffffffffffff811115611750575f80fd5b8401601f81018613611760575f80fd5b803561177361176e826116e1565b6116b0565b818152876020838501011115611787575f80fd5b816020840160208301375f602083830101528093505050509250925092565b5f602082840312156117b6575f80fd5b81356114308161161c565b5f80604083850312156117d2575f80fd5b82356117dd8161161c565b946020939093013593505050565b60208082526018908201527f47616d6520686173206e6f742073746172746564207965740000000000000000604082015260600190565b634e487b7160e01b5f52601160045260245ffd5b808201808211156103df576103df611822565b6020808252600e908201526d11d85b59481a185cc8195b99195960921b604082015260600190565b80820281158282048414176103df576103df611822565b5f826118a257634e487b7160e01b5f52601260045260245ffd5b500490565b600b82810b9082900b036b7fffffffffffffffffffffff1981126b7fffffffffffffffffffffff821317156103df576103df611822565b600b81810b9083900b016b7fffffffffffffffffffffff81136b7fffffffffffffffffffffff19821217156103df576103df611822565b5f5b8381101561192f578181015183820152602001611917565b50505f910152565b5f815180845261194e816020860160208601611915565b601f01601f19169290920160200192915050565b602081525f6114306020830184611937565b5f805f8060808587031215611987575f80fd5b84519350602085015180600b0b811461199e575f80fd5b6040860151606090960151949790965092505050565b7f416363657373436f6e74726f6c3a206163636f756e742000000000000000000081525f83516119eb816017850160208801611915565b7001034b99036b4b9b9b4b733903937b6329607d1b6017918401918201528351611a1c816028840160208801611915565b01602801949350505050565b5f60208284031215611a38575f80fd5b81516114308161161c565b634e487b7160e01b5f52600160045260245ffd5b6001600160a01b0385811682528481166020830152831660408201526080606082018190525f90611a8a90830184611937565b9695505050505050565b6001600160a01b03841681526060602082018190525f90611ab790830185611937565b8281036040840152611a8a8185611937565b5f60208284031215611ad9575f80fd5b815167ffffffffffffffff811115611aef575f80fd5b8201601f81018413611aff575f80fd5b8051611b0d61176e826116e1565b818152856020838501011115611b21575f80fd5b610c86826020830160208601611915565b6001600160a01b038681168252858116602083015284166040820152600b83900b606082015260a0608082018190525f90611b6f90830184611937565b979650505050505050565b634e487b7160e01b5f52603260045260245ffd5b5f81611b9c57611b9c611822565b505f19019056fea264697066735822122064fc9d252e1e2cfd886b7b698376fdf01578963d91a511bf490af86a969314a664736f6c63430008170033","linkReferences":{}},"methodIdentifiers":{"BASE_FLOW_RATE()":"967fab90","DEFAULT_ADMIN_ROLE()":"a217fddf","GAME_ADMIN_ROLE()":"be22d27d","duration()":"0fb5a6b4","eat(address,address,uint256)":"3f4ebe25","enter(address,address,bytes)":"51d9e3b6","exit(address)":"b42652e9","gameCurrencies(address)":"cb7064d3","getRoleAdmin(bytes32)":"248a9ca3","grantRole(bytes32,address)":"2f2ff15d","hasRole(bytes32,address)":"91d14854","isInGame(address)":"76e033c7","life()":"c5310868","renounceRole(bytes32,address)":"36568abe","revokeRole(bytes32,address)":"d547741f","startTime()":"78e97925","supportsInterface(bytes4)":"01ffc9a7","updateGamePrice(address,uint256)":"a20dec04"},"id":64}