{"abi":[{"type":"constructor","inputs":[{"name":"_cfaV1Forwarder","type":"address","internalType":"address"}],"stateMutability":"nonpayable"},{"type":"function","name":"cfaV1Forwarder","inputs":[],"outputs":[{"name":"","type":"address","internalType":"contract CFAv1Forwarder"}],"stateMutability":"view"},{"type":"function","name":"createGame","inputs":[{"name":"admin","type":"address","internalType":"address"},{"name":"superToken","type":"address","internalType":"address"},{"name":"baseFlowRate","type":"int96","internalType":"int96"},{"name":"nativePrice","type":"uint256","internalType":"uint256"}],"outputs":[{"name":"","type":"address","internalType":"address"}],"stateMutability":"nonpayable"},{"type":"event","name":"GameCreated","inputs":[{"name":"gameAddress","type":"address","indexed":true,"internalType":"address"},{"name":"admin","type":"address","indexed":true,"internalType":"address"},{"name":"lifeToken","type":"address","indexed":false,"internalType":"address"}],"anonymous":false}],"bytecode":{"object":"0x60a060405234801561000f575f80fd5b50604051611fd9380380611fd983398101604081905261002e9161003f565b6001600160a01b031660805261006c565b5f6020828403121561004f575f80fd5b81516001600160a01b0381168114610065575f80fd5b9392505050565b608051611f4f61008a5f395f8181603d015261010b0152611f4f5ff3fe608060405234801561000f575f80fd5b5060043610610034575f3560e01c806366daf75414610038578063ef5d95021461007b575b5f80fd5b61005f7f000000000000000000000000000000000000000000000000000000000000000081565b6040516001600160a01b03909116815260200160405180910390f35b61005f6100893660046102b7565b5f808490505f8682868660405161009f9061028f565b6001600160a01b039485168152939092166020840152600b0b60408301526060820152608001604051809103905ff0801580156100de573d5f803e3d5ffd5b50604051637243fb9360e01b81526001600160a01b038481166004830152808316602483015291925082917f00000000000000000000000000000000000000000000000000000000000000001690637243fb93906044016020604051808303815f875af1158015610151573d5f803e3d5ffd5b505050506040513d601f19601f820116820180604052508101906101759190610306565b50816001600160a01b0316632f2ff15d836001600160a01b031663be22d27d6040518163ffffffff1660e01b8152600401602060405180830381865afa1580156101c1573d5f803e3d5ffd5b505050506040513d601f19601f820116820180604052508101906101e5919061032c565b6040516001600160e01b031960e084901b16815260048101919091526001600160a01b038b1660248201526044015f604051808303815f87803b15801561022a575f80fd5b505af115801561023c573d5f803e3d5ffd5b50506040516001600160a01b038681168252808c169350841691507fd3432ff5c78a4cfac45492c26900080695bc03e553bf581d99afdee4869c3e719060200160405180910390a3979650505050505050565b611bd68061034483390190565b80356001600160a01b03811681146102b2575f80fd5b919050565b5f805f80608085870312156102ca575f80fd5b6102d38561029c565b93506102e16020860161029c565b9250604085013580600b0b81146102f6575f80fd5b9396929550929360600135925050565b5f60208284031215610316575f80fd5b81518015158114610325575f80fd5b9392505050565b5f6020828403121561033c575f80fd5b505191905056fe6080604052600180546001600160601b031916670de0b6b3a76400001790553480156200002a575f80fd5b5060405162001bd638038062001bd68339810160408190526200004d91620001c2565b600280546001600160a01b038681166001600160a01b0319909216919091179091556001600160601b0383169084166c01000000000000000000000000026001600160601b0319161760019081555f80805260036020527f3617319a054d772f909f7c479a2cebe5066e836a939412e32403c99029b92eff805460ff19169092179091557f3617319a054d772f909f7c479a2cebe5066e836a939412e32403c99029b92f008290556200010190336200010b565b505050506200021e565b5f828152602081815260408083206001600160a01b038516845290915290205460ff16620001a6575f828152602081815260408083206001600160a01b03851684529091529020805460ff19166001179055620001653390565b6001600160a01b0316816001600160a01b0316837f2f8788117e7eff1d82e926ec794901d17c78024a50270940304540a733656f0d60405160405180910390a45b5050565b6001600160a01b0381168114620001bf575f80fd5b50565b5f805f8060808587031215620001d6575f80fd5b8451620001e381620001aa565b6020860151909450620001f681620001aa565b80935050604085015180600b0b81146200020e575f80fd5b6060959095015193969295505050565b6119aa806200022c5f395ff3fe6080604052600436106100ef575f3560e01c8063967fab9011610087578063be22d27d11610057578063be22d27d14610290578063c5310868146102c3578063cb7064d314610301578063d547741f14610350575f80fd5b8063967fab9014610213578063a20dec041461023f578063a217fddf1461025e578063b42652e914610271575f80fd5b80633f4ebe25116100c25780633f4ebe25146101a357806351d9e3b6146101c257806376e033c7146101d557806391d14854146101f4575f80fd5b806301ffc9a7146100f3578063248a9ca3146101275780632f2ff15d1461016357806336568abe14610184575b5f80fd5b3480156100fe575f80fd5b5061011261010d36600461140e565b61036f565b60405190151581526020015b60405180910390f35b348015610132575f80fd5b50610155610141366004611435565b5f9081526020819052604090206001015490565b60405190815260200161011e565b34801561016e575f80fd5b5061018261017d366004611460565b6103a5565b005b34801561018f575f80fd5b5061018261019e366004611460565b6103ce565b3480156101ae575f80fd5b506101826101bd36600461148e565b610451565b6101826101d0366004611538565b6106c1565b3480156101e0575f80fd5b506101126101ef3660046115d6565b61079b565b3480156101ff575f80fd5b5061011261020e366004611460565b6107a5565b34801561021e575f80fd5b5060015461022c90600b0b81565b604051600b9190910b815260200161011e565b34801561024a575f80fd5b506101826102593660046115f1565b6107cd565b348015610269575f80fd5b506101555f81565b34801561027c575f80fd5b5061018261028b3660046115d6565b6107f6565b34801561029b575f80fd5b506101557f9b7946abd96dccbe6cfc6cc2c13300ab429d93e16fa72dc459eeccda73817f0881565b3480156102ce575f80fd5b506001546102e990600160601b90046001600160a01b031681565b6040516001600160a01b03909116815260200161011e565b34801561030c575f80fd5b5061033961031b3660046115d6565b60036020525f90815260409020805460019091015460ff9091169082565b60408051921515835260208301919091520161011e565b34801561035b575f80fd5b5061018261036a366004611460565b6108d1565b5f6001600160e01b03198216637965db0b60e01b148061039f57506301ffc9a760e01b6001600160e01b03198316145b92915050565b5f828152602081905260409020600101546103bf816108f5565b6103c98383610902565b505050565b6001600160a01b03811633146104435760405162461bcd60e51b815260206004820152602f60248201527f416363657373436f6e74726f6c3a2063616e206f6e6c792072656e6f756e636560448201526e103937b632b9903337b91039b2b63360891b60648201526084015b60405180910390fd5b61044d8282610985565b5050565b7f9b7946abd96dccbe6cfc6cc2c13300ab429d93e16fa72dc459eeccda73817f0861047b816108f5565b610484846109e9565b80156104945750610494836109e9565b6104e05760405162461bcd60e51b815260206004820152601960248201527f47616d653a20706c6179657273206e6f7420696e2067616d6500000000000000604482015260640161043a565b6127108211156105585760405162461bcd60e51b815260206004820152603d60248201527f47616d653a2070657263656e74616765456174656e2073686f756c642062652060448201527f6c657373207468616e206f7220657175616c20746f204d41585f425053000000606482015260840161043a565b6002546001545f9161057e91600160601b90046001600160a01b03908116911686610a23565b50509150505f6127108483600b0b610596919061162f565b6105a09190611646565b90505f6105ad8284611665565b90505f81600b0b136105e3576002546001546105dd916001600160a01b03600160601b9092048216911688610ac0565b5061060a565b600254600154610608916001600160a01b03600160601b909204821691168884610ae6565b505b60025460015461062e916001600160a01b03600160601b9092048216911689610a23565b505060025490945061066a91506001600160a01b03168861064f858761169c565b600154600160601b90046001600160a01b0316929190610ae6565b50856001600160a01b0316876001600160a01b03167fd4ef10610f644bceeb883e86ca9011d54481c1bb53900991a1ea0b1668b3d184876040516106b091815260200190565b60405180910390a350505050505050565b6106ca836109e9565b156107175760405162461bcd60e51b815260206004820152601c60248201527f47616d653a20706c6179657220616c726561647920696e2067616d6500000000604482015260640161043a565b6107218383610b0f565b60025460015461074a916001600160a01b03600160601b83048116929116908690600b0b610c2b565b50816001600160a01b0316836001600160a01b03167f4289906870e5f7a9ef4f05db6139bc78296e8fd5ea06fa3bdbb81ba9d0ebd53b8360405161078e9190611720565b60405180910390a3505050565b5f61039f826109e9565b5f918252602082815260408084206001600160a01b0393909316845291905290205460ff1690565b5f6107d7816108f5565b506001600160a01b039091165f90815260036020526040902060010155565b7f9b7946abd96dccbe6cfc6cc2c13300ab429d93e16fa72dc459eeccda73817f08610820816108f5565b610829826109e9565b6108755760405162461bcd60e51b815260206004820152601860248201527f47616d653a20706c61796572206e6f7420696e2067616d650000000000000000604482015260640161043a565b600254600154610899916001600160a01b03600160601b9092048216911684610ac0565b506040516001600160a01b038316907faa5cfc974bd759f818e3e18a4afc9d79daaa0722158497792100a1fddd13e193905f90a25050565b5f828152602081905260409020600101546108eb816108f5565b6103c98383610985565b6108ff8133610c4b565b50565b61090c82826107a5565b61044d575f828152602081815260408083206001600160a01b03851684529091529020805460ff191660011790556109413390565b6001600160a01b0316816001600160a01b0316837f2f8788117e7eff1d82e926ec794901d17c78024a50270940304540a733656f0d60405160405180910390a45050565b61098f82826107a5565b1561044d575f828152602081815260408083206001600160a01b0385168085529252808320805460ff1916905551339285917ff6391f5c32d9c69d2a47ea670b442974b53935d1edc7fd64eb21e047a839171b9190a45050565b6002546001545f918291610a11916001600160a01b03600160601b9092048216911685610a23565b50505f600b9190910b13949350505050565b5f805f805f610a3188610ca4565b604051631cd43d1160e31b81526001600160a01b038b811660048301528a811660248301528981166044830152919350908316915063e6a1e88890606401608060405180830381865afa158015610a8a573d5f803e3d5ffd5b505050506040513d601f19601f82011682018060405250810190610aae9190611732565b929b919a509850909650945050505050565b604080515f80825260208201909252610ade90859085908590610e21565b949350505050565b604080515f80825260208201909252610b06908690869086908690610f45565b95945050505050565b6001600160a01b0381165f9081526003602052604090205460ff16610b765760405162461bcd60e51b815260206004820152601a60248201527f47616d653a2063757272656e6379206e6f7420656e61626c6564000000000000604482015260640161043a565b6001600160a01b038116610be3576001600160a01b0381165f90815260036020526040902060010154341461044d5760405162461bcd60e51b815260206004820152601360248201527247616d653a20696e76616c696420707269636560681b604482015260640161043a565b60405162461bcd60e51b815260206004820152601960248201527f47616d653a204552433230206e6f7420737570706f7274656400000000000000604482015260640161043a565b604080515f80825260208201909252610b0690869086908690869061106c565b610c5582826107a5565b61044d57610c62816110b8565b610c6d8360206110ca565b604051602001610c7e929190611772565b60408051601f198184030181529082905262461bcd60e51b825261043a91600401611720565b7f65599bf746e17a00ea62e3610586992d88101b78eec3cf380706621fb97ea837547fb969d79d88acd02d04ed7ee7d43b949e7daf093d363abcfbbc43dfdfd1ce969a546001600160a01b038116610df0576001600160a01b038216610d6757826001600160a01b03166320bc44256040518163ffffffff1660e01b8152600401602060405180830381865afa158015610d40573d5f803e3d5ffd5b505050506040513d601f19601f82011682018060405250810190610d6491906117e6565b91505b604051635b69006f60e11b81527fa9214cc96615e0085d3bb077758db69497dc2dce3b2b1e97bc93c3d18d83efd360048201526001600160a01b0383169063b6d200de90602401602060405180830381865afa158015610dc9573d5f803e3d5ffd5b505050506040513d601f19601f82011682018060405250810190610ded91906117e6565b90505b6001600160a01b038216610e0657610e06611801565b6001600160a01b038116610e1c57610e1c611801565b915091565b5f805f610e2d87611267565b91509150816001600160a01b03166339255d5b82836001600160a01b0316634c8b181f8b8b8b5f67ffffffffffffffff811115610e6c57610e6c6114cc565b6040519080825280601f01601f191660200182016040528015610e96576020820181803683370190505b50604051602401610eaa9493929190611815565b60408051808303601f1901815291815260208201805160e094851b6001600160e01b03909116179052519185901b6001600160e01b0319168252610ef5939250908990600401611852565b5f604051808303815f875af1158015610f10573d5f803e3d5ffd5b505050506040513d5f823e601f3d908101601f19168201604052610f379190810190611887565b506001979650505050505050565b5f805f610f5188611267565b91509150816001600160a01b03166339255d5b82836001600160a01b031663354b95908c8c8c8c5f67ffffffffffffffff811115610f9157610f916114cc565b6040519080825280601f01601f191660200182016040528015610fbb576020820181803683370190505b50604051602401610fd09594939291906118f0565b60408051808303601f1901815291815260208201805160e094851b6001600160e01b03909116179052519185901b6001600160e01b031916825261101b939250908990600401611852565b5f604051808303815f875af1158015611036573d5f803e3d5ffd5b505050506040513d5f823e601f3d908101601f1916820160405261105d9190810190611887565b50600198975050505050505050565b5f805f61107888611267565b91509150816001600160a01b03166339255d5b82836001600160a01b03166394229ecb8c8c8c8c5f67ffffffffffffffff811115610f9157610f916114cc565b606061039f6001600160a01b03831660145b60605f6110d883600261162f565b6110e3906002611938565b67ffffffffffffffff8111156110fb576110fb6114cc565b6040519080825280601f01601f191660200182016040528015611125576020820181803683370190505b509050600360fc1b815f8151811061113f5761113f61194b565b60200101906001600160f81b03191690815f1a905350600f60fb1b8160018151811061116d5761116d61194b565b60200101906001600160f81b03191690815f1a9053505f61118f84600261162f565b61119a906001611938565b90505b6001811115611211576f181899199a1a9b1b9c1cb0b131b232b360811b85600f16601081106111ce576111ce61194b565b1a60f81b8282815181106111e4576111e461194b565b60200101906001600160f81b03191690815f1a90535060049490941c9361120a8161195f565b905061119d565b5083156112605760405162461bcd60e51b815260206004820181905260248201527f537472696e67733a20686578206c656e67746820696e73756666696369656e74604482015260640161043a565b9392505050565b7f65599bf746e17a00ea62e3610586992d88101b78eec3cf380706621fb97ea837547fb969d79d88acd02d04ed7ee7d43b949e7daf093d363abcfbbc43dfdfd1ce969a546001600160a01b038116610df0576001600160a01b03821661132a57826001600160a01b03166320bc44256040518163ffffffff1660e01b8152600401602060405180830381865afa158015611303573d5f803e3d5ffd5b505050506040513d601f19601f8201168201806040525081019061132791906117e6565b91505b604051635b69006f60e11b81527fa9214cc96615e0085d3bb077758db69497dc2dce3b2b1e97bc93c3d18d83efd360048201526001600160a01b0383169063b6d200de90602401602060405180830381865afa15801561138c573d5f803e3d5ffd5b505050506040513d601f19601f820116820180604052508101906113b091906117e6565b9050817f65599bf746e17a00ea62e3610586992d88101b78eec3cf380706621fb97ea83755807fb969d79d88acd02d04ed7ee7d43b949e7daf093d363abcfbbc43dfdfd1ce969a556001600160a01b038216610e0657610e06611801565b5f6020828403121561141e575f80fd5b81356001600160e01b031981168114611260575f80fd5b5f60208284031215611445575f80fd5b5035919050565b6001600160a01b03811681146108ff575f80fd5b5f8060408385031215611471575f80fd5b8235915060208301356114838161144c565b809150509250929050565b5f805f606084860312156114a0575f80fd5b83356114ab8161144c565b925060208401356114bb8161144c565b929592945050506040919091013590565b634e487b7160e01b5f52604160045260245ffd5b604051601f8201601f1916810167ffffffffffffffff81118282101715611509576115096114cc565b604052919050565b5f67ffffffffffffffff82111561152a5761152a6114cc565b50601f01601f191660200190565b5f805f6060848603121561154a575f80fd5b83356115558161144c565b925060208401356115658161144c565b9150604084013567ffffffffffffffff811115611580575f80fd5b8401601f81018613611590575f80fd5b80356115a361159e82611511565b6114e0565b8181528760208385010111156115b7575f80fd5b816020840160208301375f602083830101528093505050509250925092565b5f602082840312156115e6575f80fd5b81356112608161144c565b5f8060408385031215611602575f80fd5b823561160d8161144c565b946020939093013593505050565b634e487b7160e01b5f52601160045260245ffd5b808202811582820484141761039f5761039f61161b565b5f8261166057634e487b7160e01b5f52601260045260245ffd5b500490565b600b82810b9082900b036b7fffffffffffffffffffffff1981126b7fffffffffffffffffffffff8213171561039f5761039f61161b565b600b81810b9083900b016b7fffffffffffffffffffffff81136b7fffffffffffffffffffffff198212171561039f5761039f61161b565b5f5b838110156116ed5781810151838201526020016116d5565b50505f910152565b5f815180845261170c8160208601602086016116d3565b601f01601f19169290920160200192915050565b602081525f61126060208301846116f5565b5f805f8060808587031215611745575f80fd5b84519350602085015180600b0b811461175c575f80fd5b6040860151606090960151949790965092505050565b7f416363657373436f6e74726f6c3a206163636f756e742000000000000000000081525f83516117a98160178501602088016116d3565b7001034b99036b4b9b9b4b733903937b6329607d1b60179184019182015283516117da8160288401602088016116d3565b01602801949350505050565b5f602082840312156117f6575f80fd5b81516112608161144c565b634e487b7160e01b5f52600160045260245ffd5b6001600160a01b0385811682528481166020830152831660408201526080606082018190525f90611848908301846116f5565b9695505050505050565b6001600160a01b03841681526060602082018190525f90611875908301856116f5565b828103604084015261184881856116f5565b5f60208284031215611897575f80fd5b815167ffffffffffffffff8111156118ad575f80fd5b8201601f810184136118bd575f80fd5b80516118cb61159e82611511565b8181528560208385010111156118df575f80fd5b610b068260208301602086016116d3565b6001600160a01b038681168252858116602083015284166040820152600b83900b606082015260a0608082018190525f9061192d908301846116f5565b979650505050505050565b8082018082111561039f5761039f61161b565b634e487b7160e01b5f52603260045260245ffd5b5f8161196d5761196d61161b565b505f19019056fea2646970667358221220c32958d6f13731a96053706471429be8832d8206098c4cdf5c18133a8c0aac3f64736f6c63430008170033a264697066735822122039dcfd8cad1512d37b21010c72bf6796b5930cf563ccbb1f035177ed9659c7d564736f6c63430008170033","linkReferences":{}},"methodIdentifiers":{"cfaV1Forwarder()":"66daf754","createGame(address,address,int96,uint256)":"ef5d9502"},"id":66}